:020000040800F2
:100000005036002061020008615D00083947000891
:100010000D5D000881190008B160000800000000B3
:10002000000000000000000000000000E15E000889
:10003000011A000800000000715D0008115F00084F
:100040007B0200087B0200087B0200087B0200089C
:100050007B0200087B0200087B0200087B0200088C
:100060007B0200087B0200087B0200087B0200087C
:100070007B0200087B0200087B020008851900084B
:10008000911900087B0200087B0200087B0200082F
:10009000656000087B0200087B0200087B02000804
:1000A0007B020008355F00087B0200087B02000825
:1000B0007B0200087B0200087B0200087B0200082C
:1000C0007B0200087B0200087B0200087B0200081C
:1000D0007B0200084D600008596000087B020008A0
:1000E0007B0200087B0200087B02000800F002F897
:1000F00000F0A6F814A696E8000CB244B344DA4522
:1001000001D100F09DF8BAE80F000FA696E8300084
:10011000A5EB040504EB0607AAEB0704A7F101070A
:100120004FEA15154FEA3414A4F10104AC4201D38F
:1001300000F086F813F0010F18BFFB1A43F001031B
:1001400000F001F8DBE71847FCA200001CA3000048
:10015000103A24BF78C878C1FAD8520724BF30C8F3
:1001600030C144BF04680C60704700007047000055
:100170000023002400250026103A28BF78C1FBD8B0
:10018000520728BF30C148BF0B6070476E2900F08E
:10019000C581702900F00983662909F0D487652993
:1001A00009F0D187672909F0CE87612909F0CD8749
:1001B00003681B0A28BF41F08001692900F07281A1
:1001C000642900F06F81752900F06C816F2900F0BF
:1001D0009782782900F0D582E92900F03182E4295C
:1001E00000F02E82F52900F02B82EF2900F0948296
:1001F000F82900F0D4820368DB0928BF41F08001B0
:10020000632901F00B80732901F01080E32901F0CC
:100210001B80F32901F02080002070471FB501F0FA
:1002200075F804000020002109F0FEFA401C60600F
:100230000020002109F0E2FAE0601FBD10B510BDFA
:1002400001F036F81146FFF7E9FF06F0DDF901F09D
:1002500013F903B4FFF7F2FF03BC01F057F90000F4
:100260000948804709480047FEE7FEE7FEE7FEE74A
:10027000FEE7FEE7FEE7FEE7FEE7FEE70448054986
:10028000054A064B70470000315F0008ED0000088A
:10029000502E0020503600205032002050320020D6
:1002A0007CB51D4616460C00009007D04142A14285
:1002B00002D32044401E01E04FF0FF30064B7B4448
:1002C0002A4669460190304600F041F9002C02D0E0
:1002D000009A002111707CBDB3020000032A40F295
:1002E000308010F0030C00F0158011F8013BBCF1D8
:1002F000020F624498BF11F801CB00F8013B38BFF0
:1003000011F8013BA2F1040298BF00F801CB38BFFD
:1003100000F8013B11F0030300F01683083AC0F027
:10032000088051F8043B083A51F804CBA0E80810C3
:10033000F5E7121D5CBF51F8043B40F8043BAFF3F6
:100340000080D20724BF11F8013B11F801CB48BF50
:1003500011F8012B24BF00F8013B00F801CB48BF86
:1003600000F8012B704702F0FF0343EA032242EA40
:10037000024200F002B84FF0000200B51346944666
:100380009646203922BFA0E80C50A0E80C50B1F1ED
:100390002001BFF4F7AF090728BFA0E80C5048BF01
:1003A0000CC05DF804EB890028BF40F8042B08BF9F
:1003B000704748BF20F8022B11F0804F18BF00F89B
:1003C000012B704770477047704710B500F0EEFA88
:1003D000006810BD10B5044600F0E8FA046010BDD6
:1003E00070B5044685690068C10601D5302600E075
:1003F0002026C00707D070BDD4E9012130469047C0
:10040000206A401C20626D1EF6D570BD70B5044692
:1004100085690078C00707D170BDD4E9012120208B
:100420009047206A401C20626D1EF6D570BD096899
:100430004A0501D540B27047C905FCD500B27047E6
:1004400009684A0501D5C0B27047C905FCD580B21C
:10045000704770B50C460546012A05D028788006FD
:1004600000D5EA69002302E0012305E05B1C93420A
:1004700002D2E05C0028F9D1A869E618C01AA86188
:10048000286A184428622846FFF7AAFF04E0D5E945
:10049000012114F8010B9047B442F8D32846FFF726
:1004A000B5FF70BD2DE9F04106460024106875299E
:1004B000314616A510D0FFF7BAFF002802DA4042F5
:1004C00013A507E031688A0701D512A502E04907A4
:1004D00004D511A5012401E0FFF7B2FF00210A2293
:1004E00006F1240709E0B0FBF2FCB0FBF2F302FBDB
:1004F0001C00303078541846491C0028F3D123469C
:100500002A463046BDE8F04100F099BA00000000EC
:100510002D0000002B000000200000001168026880
:10052000006A530501D508700AE0D30501D508809B
:1005300006E0130603D5C217C1E9000200E0086017
:100540000120704701694A1C02610878704700B5B4
:100550008FB0CDE901310021059105497944CDE9FC
:1005600003101146684600F02BF90FB000BD0000E3
:10057000E5FFFFFFD1E900239A4202D2531C0B6032
:10058000107070472DE9FF5F15468A460446DFF874
:10059000AC80F8440027D8E900103E46CDE90010B1
:1005A00010E03AF816106A4602A800F059FE411C05
:1005B00007D02178890603D5E269391891420DD810
:1005C0000744761C2078800602D5E069B84205DD34
:1005D000AE42E6DB3AF816000028E2D1A069C01B63
:1005E000A0612046FFF7FCFED8E90010CDE900101D
:1005F000002017E03AF818106A4602A800F030FE12
:10060000B0F1FF3F81460BD000250DF1080B05E04E
:10061000D4E901211BF8050090476D1C4D45F7D327
:1006200008F10100B0428046E4DB206A38442062D1
:100630002046FFF7EBFEBDE8FF9F00009A9C0000FC
:100640002DE9F0418046D21D22F007020025D2E9B3
:100650000002F52915A614D0011E72F1000106DA78
:100660000023D0EB030063EB020211A608E0D8F8E8
:1006700000108B0701D50FA602E0490701D50EA691
:1006800001251146002408F1240704E000F092F946
:1006900030323A55641C50EA0102F7D12B463246FB
:1006A00021464046BDE8F04100F0C9B90000000015
:1006B0002D0000002B0000002000000030B40021BD
:1006C00000F1240408E002F00705D208303542EAC0
:1006D0004372DB086554491C52EA0305F3D10468F0
:1006E000002310A2250708D504F020040C4304D0F1
:1006F000C46901230CA2641EC46130BC00F09FB920
:1007000010B5044621461068FFF79AFE02462046BF
:10071000BDE810400023D1E7D21D22F00701D1E946
:100720000023CBE70000000030000000F0B40D46CD
:100730000188090502D5214C7C4402E01F4C7C4411
:100740000E34002100F1240608E002F00F07120920
:10075000E75D42EA03721B097754491C52EA03071A
:10076000F3D102780023120704D5702D06D009B109
:10077000022311342246F0BC00F061B90123103489
:10078000F8E770B504460D4621461068FFF758FE9D
:10079000024629462046BDE870400023C6E7D21D28
:1007A00022F00703D3E90023C0E70368126843F08F
:1007B000200303600823C3610023B7E7FC9A00000D
:1007C0002DE9F05F894604464FF0000ADFF874B166
:1007D000FB44C0F820A02046E1688847002874D078
:1007E000252806D0D4E901219047206A401C2062C8
:1007F000F1E700265F462046E16888472028054645
:1008000007DB312D05D2781910F8200C08B106430A
:10081000F1E7B00701D526F00406C4F81CA00027B4
:10082000C4F818A02A2D09D0284608F063FC38B374
:1008300004EB8708303DC8F8185019E059F8041B3C
:10084000204604EB87029161E1688847012F054645
:1008500018D1E069002820DA26F020061DE0D8F83B
:10086000180000EB800005EB40003038C8F8180095
:100870002046E1688847054608F03CFC0028EED198
:10088000012F0AD02E2D08D12046E16888477F1C11
:100890000546022F46F02006C4DBA069002803DAD3
:1008A000404246F00106A061F00701D026F0100694
:1008B0006C2D0BD0682D09D04C2D39D06A2D35D038
:1008C000742D35D07A2D33D016E038E0E1682F460C
:1008D00020468847B842054609D16C2F26D04FF4F0
:1008E0008060E168064320468847054604E06C2F97
:1008F0001AD04FF4807006430DB3A5F141001928BA
:1009000002D8203546F400664A462946204626602D
:100910004E46FFF73BFC80B101280BD0F61D26F0B8
:10092000070000F1080956E74020E4E78020D8E7F7
:100930000020D6E706F104094DE7284652E7206A71
:10094000BDE8F09F8C9A000010B5203AC0F00B80F3
:10095000B1E81850A0E81850B1E81850A0E81850B5
:10096000203ABFF4F5AF5FEA027C24BFB1E818502B
:10097000A0E8185044BF18C918C0BDE810405FEA8D
:10098000827C24BF51F8043B40F8043B08BF704709
:10099000D20728BF31F8023B48BF11F8012B28BF0E
:1009A00020F8023B48BF00F8012B70470048704711
:1009B0001800002030B5B0F10A0271F100034FEACF
:1009C000900E4EEA817EB0EB0E0061EB91014FEA92
:1009D000101E4EEA017E10EB0E0041EB11114FEAA2
:1009E000102E4EEA016E10EB0E0041EB11214FEA82
:1009F000104E4EEA014E10EB0E0041EB1141401833
:100A000041F100014FEAD00040EA41704FEAD101C4
:100A10004FEA810444EA907410EB800544EB010432
:100A20006D1944EB0404521BA3414FF0000348BF6F
:100A30000A3200D530BD401C41F1000130BD2DE926
:100A4000F0470D4699469246044600F12408016895
:100A5000880604D5E06921F01001216000E0012042
:100A6000A84201DD471B00E00027A1697A1902EBCB
:100A70000900081AA0612078C00602D42046FFF7BA
:100A8000AFFC002608E0D4E901211AF806009047DF
:100A9000206A401C761C20624E45F4DB2078C0069C
:100AA0000AD52046FFF79CFC06E0D4E9012130205E
:100AB0009047206A401C2062381EA7F10107F4DC31
:100AC00007E0D4E9012118F805009047206A401C8E
:100AD0002062281EA5F10105F3DC2046FFF796FCF5
:100AE0002078000602D50220BDE8F0870120FBE750
:100AF0002DE9FF4F0C461E464FF0FF378BB0D2E971
:100B00000001DDF860800A908A46C1F30A5505B9F4
:100B10003D46002108464FF00000BAF1000F00F4F6
:100B2000400005DA00EB80004FF4400101EA50007C
:100B30004FEA9059B9F1010F00DDB9460A9850EA21
:100B40004A000ED044F61050A5F2FF3545432F144D
:100B5000B8F1000F1ED07542291E1EDDC9F100023A
:100B60001CE0B8F1010F4FF0000001D0302103E08C
:100B7000F24305E02154401CB042FBDB304600222A
:100B8000002121540B99C1F80880C1E900200FB061
:100B9000BDE8F08FBD1B6D1CDEE74A4600DA6942F6
:100BA00006A800F0F7FB06AB93E8070003AB83E869
:100BB000070050460A9907F0EBFD8DE80700A0F505
:100BC00000501F3800900398002D0ADD42F21F01EB
:100BD0004A460844002303A90390684608F054F8E5
:100BE00009E0A0F500504A461F38002303A90390EE
:100BF000684608F05EF88DE807000004000C03D09A
:100C00004FF0FF30410800E01046B8F1000F03D06C
:100C10000022009215461EE0751E05D4FFF7CAFE9D
:100C2000303262556D1EF9D5B3460122084302D019
:100C300000227F1C04E02078302801D100227F1E92
:100C4000002A099784D01DE0112D07DAFFF7B2FEC4
:100C5000303262556D1C50EA0102F5D1084302D0D2
:100C60000098C8B10EE00021681E05E0235C625CBC
:100C700063542254401E491C8142F7DBAB46A81B3B
:100C8000401E0990002004F80B000B98099AC0F848
:100C90000880C0E9002B7AE711264FF0000857E7DB
:100CA0002DE9F04F88460446D21D22F0070191B08D
:100CB000D1E90001CDE90A0108F032F902460B98AA
:100CC000C00F01D02D2007E02068810701D52B201F
:100CD00002E0202101EAC000032A099001D0072A7E
:100CE00005DB03464146204600F014FB0BE120786B
:100CF000800601D5E06900E00620B8F1650F814665
:100D000006D0B8F1660F18D0B8F1670F70D131E096
:100D10000020B9F1110F009001DB112301E009F16E
:100D200001030AAA01A90CA8FFF7E2FEDDE90C7095
:100D3000002609F10105834647E001204B4600905B
:100D40004FF000470AAA01A90CA8FFF7D1FEDDE980
:100D50000DB00C995D46002610B909F101000D187F
:100D6000B9EB050003D4C0F1FF3609F10105A5EB8D
:100D700009002BE0B9F1010F01DA4FF00109002061
:100D8000B9F1110F0090484601DD112300E0034640
:100D90000AAA01A90CA8FFF7ABFEDDE90C704D46CD
:100DA00000268346207800070AD4AB4500DA5D466A
:100DB00001A8012D04DD411911F8011C302907D0CB
:100DC0004F4502DA17F1040F04DA012082460FE0E2
:100DD0006D1EEEE7002F02DCED1B3E4403E0781CA5
:100DE000A84200DD7D1CB81B00F1010A4FF000474E
:100DF0002078000703D4AA4501DB4FF0FF3A002119
:100E0000B7F1004F0DF143088DF8431024D00220B4
:100E10002B23002F01DA7F422D230A21021EA0F18D
:100E2000010000DC5FB197FBF1FC97FBF1F201FBE5
:100E30001C7C17460CF1300C08F801CDEEE7A8F148
:100E4000010003702188090501D5452100E06521D5
:100E5000A0F1010800F8011C09980FA9A1EB0807EF
:100E6000FF1D00B10120411901EBEA70A16938446E
:100E7000081A401EA0612078C00602D42046FFF761
:100E8000AFFA099828B1D4E901219047206A401CA3
:100E900020622078C00622D52046FFF7A1FA1EE086
:100EA000002E04DBB34502DD01A8805D00E03020A8
:100EB000D4E901219047206A401C2062761CAAF1E7
:100EC00001005FEA000A0AD100F020FAC068016858
:100ED000405CD4E901219047206A401C2062281E12
:100EE000A5F10105DCDC07E0D4E9012118F8010BCC
:100EF0009047206A401C2062381EA7F10107F3DCEE
:100F00002046FFF783FA032011B041E62DE9F04FA8
:100F100004460D46D21D22F0070089B0D0E90097A3
:100F20004846394607F0FCFF0246F80F01D02D2352
:100F300007E02068810701D52B2302E0202101EA88
:100F4000C0038DF820300BB1012000E00020032AFF
:100F5000824601D0072A04DB2946204600F0DAF950
:100F60003FE12078800601D40D2500E0E569C7F354
:100F70000A560D2D49DA00214FEA175B08464FF05B
:100F80000000002F00F4400007DA00EB80004FF46F
:100F9000400100EBD07001EA60008115012901DDFC
:100FA0004FF0FF3100224FEA850CBCF1180F06D339
:100FB0001346ACF118004FF08052C24003E04FF4EA
:100FC000801323FA0CF30CF10C0CBCF1200F04D3AA
:100FD000ACF1200C09FA0CF001E007FA0CF0002942
:100FE0004FF0004801DD18B90FE00ED140450CD399
:100FF00019EB02095F4121B9404502D19F4329EA1B
:101000000209BBEB175F00D0761C2088000502D5D3
:101010007B48784402E07A487844193808AA30239B
:1010200002F80A30037C0AF10101002E0AF1020ADB
:1010300053546A4602DC4FF0300101E04FF03101B9
:101040004FF001088DF8001002D0A6F2FF3603E041
:1010500059EA470100D06B4E002D02DC21780907C8
:1010600004D54FF002082E218DF80110C44600214E
:101070000BE0C7F303433F01C35C491C6D1E02F83C
:101080000830052908F1010801DA002DF1DC002102
:101090000CE000EB1973491C1B786D1E082902F83F
:1010A00008304FEA091908F1010801DA002DF0DCD7
:1010B00021688B0602D516E0A8F10108E04505DDA0
:1010C00002EB080313F8013C302BF5D0B8F1000F08
:1010D00009DD02EB080313F8013C2E2B03D10907AD
:1010E00001D4A8F10108002D05DD3E2102F8081009
:1010F0006D1E08F10108407C002E02F8080008F17E
:10110000010804DA2D20764202F8080002E02B20C4
:1011100002F808000A214FF47A70864208F10108AB
:101120000BDB96FBF0F3303302F8083096FBF0F35C
:1011300008F1010800FB136601E0642E0CDB64205B
:1011400096FBF0F3303302F8083096FBF0F308F129
:10115000010800FB136601E00A2E06DB96FBF1F0A6
:10116000303002F8080008F1010896FBF1F001FBAD
:101170001060303002F80800A16908F1010808EB9E
:10118000050202EB0A00081AA0612078C00602D40A
:101190002046FFF725F9216A08AE01EB0A0020621C
:1011A00004E0D4E9012116F8010B9047BAF1010AD5
:1011B000F7D22078C00602D52046FFF711F96E4617
:1011C00009E016F8010B3E280FD0D4E90121904721
:1011D000206A401C2062B8F10108F2D22046FFF7D5
:1011E00015F909B00320BDE8F08F206A2844206279
:1011F00003E0D4E90121302090476D1EEBD3F8E7DE
:101200009192000002FCFFFF10B5436913B1AFF3E8
:10121000008001E0FFF71DF9012010BD127800F1F8
:1012200024010A7000224A700122EDE711684FF094
:10123000FF32E9E710B5436913B1AFF3008001E075
:10124000FFF7A0F9012010BD128800F1240182846B
:101250000022C2840122EDE711684FF0FF32E9E776
:101260002DE9F04116460C46054600F047F80368A4
:1012700093F80101012807D0FF2C12D8185D80B126
:1012800001202C70BDE8F081D3F8070132462146D9
:1012900003F20713C7182846BC46BDE8F0410023F7
:1012A00060474FF0FF30EDE700487047180000201E
:1012B0007546FFF7F9FFAE4605006946534620F034
:1012C0000700854618B020B5FEF7D8FFBDE82040DE
:1012D0004FF000064FF000074FF000084FF0000BF2
:1012E000AC46ACE8C009ACE8C009ACE8C009ACE861
:1012F000C00921F007018D467047000010B500F0CD
:1013000005F8001D10BD00BF218500000048704792
:10131000380000202DE9F0411F46044603260168ED
:10132000072A01F4006004DB08B116A505E016A544
:1013300003E008B115A500E015A521F0100020601C
:10134000A069C01EA0610FB1401EA0612046FFF73A
:1013500047F84FB1D4E9012138469047206A401C34
:101360002062C01C206206E0206AFAE7D4E901216D
:1013700015F8010B9047761EF8D22046FFF746F885
:10138000BDE8F0814E414E006E616E00494E460050
:10139000696E66002DE9F047814616468AB03548E9
:1013A00078440DC88DE80D0032487844801C03ACA9
:1013B0000DC884E80D0041F69B300844372190FBAE
:1013C000F1F290FBF1F5A5F1800501FB12041B3C45
:1013D00002D56442012000E00020DFF898A080469A
:1013E0000027FA44AAF1BE0A0EE0E0070AD032460E
:1013F000684607EB470101230AEB810107F059FC1E
:101400008DE8070064107F1C002CEED1194F7F443B
:10141000AE3F19E0E80715D007EB04100DF1180AEC
:1014200090E80E008AE80E00C068F04201D19819D9
:1014300008903246012306A903A807F03AFC03AB43
:1014400083E807006D10641C002DE3D14FF0010309
:1014500032466946B8F1000F03A802D007F014FC29
:1014600001E007F026FCC9E90001C9F808200AB02C
:10147000BDE8F087948F000010B50446AFF30080FC
:101480002046BDE81040FEF7E4BE00004FF0013CEE
:1014900050F8042B51F8043B9A4221D1A2EB0C03E3
:1014A000934313EACC1317D150F8042B51F8043BA3
:1014B0009A4215D1A2EB0C03934313EACC130BD140
:1014C00050F8042B51F8043B9A4209D1A2EB0C03CB
:1014D000934313EACC13DBD04FF00000704700BFFA
:1014E000D01A01BAB1FA81F101F0180122FA01F023
:1014F000CB40DBB2C0B2C01AC1F120012CFA01F31B
:10150000D11A914311EAC311E6D17047014918205D
:10151000ABBEFEE7260002007047000040F6000068
:10152000C4F201004FF48071012201F04DB90000B6
:1015300040F60000C4F201004FF48071002201F077
:1015400043B900007047000040F60040C4F20100BB
:101550004FF48051012201F037B9000040F60040FD
:10156000C4F201004FF48051002201F02DB90000B7
:1015700070470000002808BF7047B0B54EF2180150
:1015800045F20032CEF2000110F0030CC0F2070267
:1015900022D051F804EC0C68002307E023445B1BC5
:1015A000A54228BF734493422C460DD20D68A54234
:1015B000F4D10D68A542F1D10D68A542EED10D68B8
:1015C000A542F3D0EAE700BFBCF1010F08D1A0F1BA
:1015D000010C042851D247E0844604284DD243E050
:1015E00051F804EC0C68002308E000BF23445B1BA7
:1015F000A54228BF734493422C460DD20D68A542E4
:10160000F4D10D68A542F1D10D68A542EED10D6867
:10161000A542F3D0EAE700BFBCF1020F04D1A0F16C
:10162000020C042829D21FE051F804CC0D680023D5
:1016300008E000BF2B441B1BAC4228BF634493420D
:1016400025460DD20C68AC42F4D10C68AC42F1D105
:101650000C68AC42EED10C68AC42F3D0EAE700BFB4
:10166000A0F1030C042808D2BDE8B040704700BFC9
:10167000ACF1040C5FEA0C40F6D051F8040C0D6894
:10168000002307E02B441B1BAC4228BF03449342BA
:1016900025460DD20C68AC42F4D10C68AC42F1D1B5
:1016A0000C68AC42EED10C68AC42F3D0EAE700BF64
:1016B00051F8040C0D68002308E000BF2B441B1BED
:1016C000AC4228BF0344934225460DD20C68AC427D
:1016D000F4D10C68AC42F1D10C68AC42EED10C688C
:1016E000AC42F3D0EAE700BF51F8040C0D680023C8
:1016F00008E000BF2B441B1BAC4228BF03449342AD
:1017000025460DD20C68AC42F4D10C68AC42F1D144
:101710000C68AC42EED10C68AC42F3D0EAE700BFF3
:1017200051F8040C0D6800230AE000BF2B441B1B7A
:10173000AC4228BF034493422546BFF499AF00BF93
:101740000C68AC42F2D10C68AC42EFD10C68AC42F0
:10175000ECD10C68AC42F3D0E8E7000080B54EF263
:101760001801CEF20001C0EB001051F804CC4FEA92
:10177000401E0868002309E003449B1A824228BFE8
:1017800063447345104628BF80BD00BF0A6882428B
:10179000F2D10A688242EFD10A688242ECD10A682B
:1017A0008242F3D0E8E7000010B5FFF7CBFEFFF769
:1017B000DFFE04F07FFC044604F0A6FD204310BDCC
:1017C0002DE9F04F83B002920E460190FFF7B0FE74
:1017D000922000F0BDF8922000F0BAF8552000F0F9
:1017E000B7F80446552000F0B3F80546552000F040
:1017F000AFF88046552000F0ABF80746552000F0C2
:10180000A7F88246552000F0A3F88346FFF786FE2E
:1018100044EA052000B208F0FFF940F20809C2F2DC
:101820000009D9F8001002460846114608F088FA67
:10183000306048EA072000B208F0EEF9D9F800401D
:101840000146204608F07CFA70604AEA0B2000B29C
:1018500008F0E2F90146204608F072FAB060FFF79E
:101860007DFE802000F074F8552000F071F80546E8
:10187000552000F06DF8552000F06AF80746552015
:1018800000F066F88046552000F062F804465520C6
:1018900000F05EF80646552000F05AF882465520C2
:1018A00000F056F88346FFF74FFE0F2D23D147EA8D
:1018B000082000B208F0B0F9D9F804100246084632
:1018C000114608F03DFA019D286044EA062000B266
:1018D00008F0A2F9D9F804400146204608F030FA91
:1018E00068604AEA0B2000B208F096F901462046EB
:1018F00008F026FAA860FFF71BFEA22000F028F8E7
:10190000A22000F025F8552000F022F8044646B247
:10191000552000F01DF80546FFF700FEE00040EA04
:1019200055104FF60001CFF6FF71002E48BF084357
:1019300008F072F94FF0785108F002FA0021C4F271
:10194000B81107F0B9FF0299086003B0BDE8F08F45
:1019500080B582B08DF8070041F240004FF47A7CE8
:10196000C2F200000DF107010DF106020123CDF8CE
:1019700000C001F05FFC9DF8060002B080BD0000D1
:10198000FEE7000040F6B870C2F2000000F002BDB1
:1019900040F6FC70C2F2000000F0FCBC10B54EF640
:1019A000FC5CCEF2000CDCF8002044F24023C0F2D4
:1019B0000F0342F08072584344F6D353CCF8002012
:1019C00041F20002C1F26203CEF200024FF0000CBD
:1019D000A0FB033EC2F804C04DF683611368C4F255
:1019E0001B31A0FB011443F00101116040F2A8116A
:1019F000C2F200014FEA9E12A30C81E80D1010BD47
:101A000070470000EFF3108072B600BFFEE70000E1
:101A100080B500BF012004F057FEFBE770B581B030
:101A20000022009290F82420012A03D102210846C6
:101A300001B070BD4A680123062A02EB820E80F8CD
:101A4000243007D8D0F800C06FF004030CF134063E
:101A50000CE000BFD0F800C00C2A87BF0CF12C06A8
:101A60006FF040030CF130066FF022030EEB03021F
:101A70001F23346803FA02F50B6824EA050503FA0C
:101A800002F22A433260092B03EB43021AD9DCF835
:101A90000C601E3A072589689540AE43914023F0BB
:101AA00001023143102ACCF80C1015D142F200414A
:101AB000C4F201018C4517D0816A41F02001816296
:101AC00001210AE0DCF81030072689689640B3430C
:101AD00091401943CCF810100021002280F82420F6
:101AE000084601B070BD00BF89680902F4D4DCF873
:101AF0000810102B41F40001CCF80810ECD140F292
:101B00001001C2F2000109684DF68362C4F21B3273
:101B1000A1FB0212910C01EB810149000091009997
:101B20000029D9D000990139009100990029D3D01A
:101B300000990139009100990029CDD0009901390F
:101B4000009100990029C7D00099013900910099AE
:101B500000294FF00001E5D1BFE70000002804BFD5
:101B600001207047B0B50446806A28B121688868B2
:101B7000C0070CD115E000BF0020E06284F824000B
:101B8000204600F097F821688868C00709D0886867
:101B900020F00100886000F01DFE21688A68D207ED
:101BA00026D1A06AC0063AD4A06A41F2021290433C
:101BB0000230A062E069D4E9013240EA030C531E0E
:101BC000B3FA83F35D091346B2F5807F18BF2B0289
:101BD000207D257B01284CEA45002CD135B3A56A30
:101BE00045F02005A562E56A45F00105E56222E0C1
:101BF000054602E08868C007D3D000F0EBFD401B2B
:101C000021680328F6D38868C007F3D0A06A40F0A3
:101C10001000A062E06A40F00100E062A06AA06AE1
:101C200040F01000A0620120B0BD00BFA56903EB29
:101C30004533A3F5C0534D68B2F5807F25F469455F
:101C400043EA05034B608B684FF2FD75CFF6E175F3
:101C500003EA050343EA00038B6001D0012A07D1A0
:101C600022690023CFF6F07303EB025201E000BFBC
:101C70000022CB6A23F470031A43CA62896840F6D3
:101C8000FE62CFF61F721140814207D10020E06250
:101C9000A16A012262F30101A162B0BDA06A40F015
:101CA000100020F00200A062E06A40F00100E06253
:101CB0000120B0BD80B586B0014640F60000C4F2F8
:101CC0000100096800F5E05291424FF00001CDE9B2
:101CD0000411CDE9021101D006B080BD41F2180116
:101CE000C4F202010A6842F400720A600A6802F44F
:101CF00000720192019A0A6842F004020A600968BF
:101D000001F0040101910199012102910321039144
:101D100002A900F051FC06B080BD00007047000031
:101D2000B0B590F82040013C012C7DD8D0F800C01F
:101D300000290CBFDCF80C40DCF81040A4077DD073
:101D40000CF5D8754FEA011C55F80C4014F004044A
:101D5000946055F80CE005EB011C19BF4FEADE0555
:101D600055604FEA5E551560DCF80050E64605F018
:101D70000205D5605EF8044F24075ABFDEF8004024
:101D800004F00F0408241461DEF800400029C4F3B5
:101D900007249461DEF800504FEA15455561DCF8E0
:101DA00008201A70026802EB0112D2F8B8214FEA3B
:101DB00012225A70026802EB0112D2F8B8214FEADF
:101DC00012429A70026802EB0112D2F8B8214FEA6F
:101DD0001262DA70026802EB0112D2F8BC211A71A9
:101DE000026802EB0112D2F8BC214FEA12225A71AA
:101DF000026802EB0112D2F8BC214FEA12429A713A
:101E0000026802EB0112D2F8BC214FEA1262DA71C9
:101E100000680CBF00F10C0100F11001002020222D
:101E20000B681A430A60B0BD00F1240101204FF491
:101E300080220B681A430A60B0BD00BF00F1240184
:101E400001204FF400120B681A430A60B0BD000075
:101E50002DE9F04F81B0044600684669D0F804903F
:101E60008768D0F80CB0D0F810A0D0F81880F1072F
:101E700004D1002530071DD424E000BFF90710D09D
:101E80000121BA07816009D4780700F1AF803807D3
:101E900000F1B680204600F0EFF902E0204600F0A5
:101EA000EDF90025F80500F18780F80300F1B18015
:101EB000300707D51BF0100004D0206845F40075EA
:101EC0001021C160700708D51BF0080005D02068FC
:101ED0000821C160204600F0BDF9B00706D5206892
:101EE000C068800702D0204600F0B6F9700607D51A
:101EF0001AF0100004D0206845F4806510210161BB
:101F0000B00608D51AF0080005D020680821016144
:101F1000204600F0ABF9F00606D52068006980077E
:101F200002D0204600F0A4F9B00308D519F0100043
:101F300005D0206810214160204600F09BF9F00395
:101F400008D519F0080005D0206808214160204616
:101F500000F09EF9300440F19B805FEA497040F147
:101F6000948006F4807008EA102028435FEA8871A4
:101F7000014648BF41F00201B20558BF01465FEA81
:101F800048700D4648BF45F00405700558BF0D4622
:101F9000300540F17A8018F0700000F0768010383B
:101FA000000905286CD8DFE800F003655D61596918
:101FB00045F0080564E000BF20684FF48071BA0561
:101FC00081600BD4780515D438051DD4204600F067
:101FD00057F9F8037FF56CAF1BE000BF204600F017
:101FE00051F9F8037FF564AF13E000BF4FF40065CB
:101FF00058E700BF05F50055F8037FF559AF08E035
:102000004FF480554EE700BF05F58045F8037FF596
:102010004FAF20684FF48031BA0381600AD478034F
:1020200010D4380314D4204600F02EF930073FF5C1
:1020300041AF47E7204600F029F930073FF53AAFB6
:1020400040E700BF05F5004530073FF533AF39E7FE
:1020500005F5803530073FF52DAF33E745F08005B6
:102060000EE000BF45F020050AE000BF45F0400546
:1020700006E000BF45F0100502E000BF45F48075A2
:102080002068816921F0700181612068042141602C
:1020900055B1606A40EA05012046616201B0BDE8C1
:1020A000F04FFFF73BBE00BF01B0BDE8F08F00006E
:1020B000002804BF01207047B0B5044690F8200006
:1020C00010B9204600F06EF82068016841F0010167
:1020D000016000F07FFB054620684168C90705D113
:1020E00000F078FB401B0B28F6D310E0016821F0CC
:1020F0000201016000F06EFB054600BF20684168E8
:1021000089070DD500F066FB401B0B28F6D3606AEB
:10211000052140F400306062012084F82010B0BD39
:10212000217E0268012922F0800208BF803202600D
:10213000617E0268012922F0400208BF403202603D
:10214000A17E0268012922F0200208BF203202602D
:10215000E17E0268012922F0100218BF10320260ED
:10216000217F0268012922F0080208BF08320260BC
:10217000617F0268012922F0040208BF0432026074
:10218000D4E901C2D4E9033561691A432A431143F2
:10219000ACF101021143C16100200121606284F8A9
:1021A0002010B0BDB0B586B0006846F20042C4F25F
:1021B0000002002190420591CDE90311029101D066
:1021C00006B0B0BD41F21800C4F20200426840F609
:1021D000004442F0007242604268C4F2010402F01E
:1021E00000720192019A026802AD42F00802026098
:1021F000006800F00800019001984FF48070CDE96C
:10220000020104912046294600F0D6F94FF40070EF
:10221000029002200390032005902046294600F0FA
:10222000CBF90420C4F20100016849F6FF72CFF631
:10223000FF02114041F0E06141F48041016014204F
:102240000521002200F07CFB142000F067FB06B0A3
:10225000B0BD00007047000040F69071C2F200016E
:10226000884218BF704704F05BB900007047000057
:102270007047000070470000704700007047000082
:102280007047000070470000704700007047000072
:1022900070470000014690F82100022816D1086816
:1022A000D1E90FC3026822F00E020260026822F038
:1022B00001020260012000FA03F2CCF8042081F848
:1022C00021000020002281F820207047042088632C
:1022D0000120002281F820207047000090F8211092
:1022E000022923D1026840F2040C1168C4F2020CE6
:1022F00021F00E01116013682F21C4F202018A42FD
:1023000023F00103136015DD3023C4F202039A4267
:102310001CD04423C4F202039A421BD05823C4F2B7
:1023200002039A421CD14FF4803321E004218163DF
:10233000012070470823C4F202039A420ED01C23E6
:10234000C4F202039A420BD1102311E04FF48073C0
:102350000EE000BF4FF480530AE000BF012307E006
:102360000CF168014FF080738A4208BF4FF480136C
:102370000121CCF8003080F82110416B00220029A7
:1023800080F8202004BF0020704780B588470020D7
:1023900080BD000010B5D0E90FCE0168DCF8003038
:1023A0000A6823FA0EF35C072AD512F0040427D03A
:1023B0000A68920603D40A6822F004020A602F22F7
:1023C000C4F20202914240F20402C4F202025BDD56
:1023D0003023C4F20203994272D04423C4F20203B0
:1023E000994273D05823C4F20203994240F07A8094
:1023F0004FF480231360C16A002940F098806FE099
:102400009C0727D512F0020424D00A68920606D44D
:102410000A6822F00A020A60012280F821202F2295
:10242000C4F20202914240F20402C4F202023BDD15
:102430003023C4F20203994260D04423C4F2020361
:1024400099425FD05823C4F20203994260D14FF4FD
:10245000003365E01B0743D512F0080208BF10BD2A
:102460000A6822F00E020A60012101FA0EF2CCF88D
:102470000420816380F82110016B0022002980F87C
:10248000202054D12CE000BF0823C4F2020399425B
:1024900022D01C23C4F20203994223D140231360AB
:1024A000C16A002943D11BE00823C4F20203994208
:1024B0002CD01C23C4F20203994229D120232FE0FF
:1024C0004FF480631360C16A89BB09E04FF4804315
:1024D0001360C16A59BB03E004231360C16A31BBB6
:1024E00010BD00BF02F168044FF08063A14208BF35
:1024F0004FF480031360C16AC9B9F1E74FF4007368
:102500000EE000BF4FF400530AE000BF022307E0D3
:1025100002F168044FF00073A14208BF4FF40013AA
:102520001360816A0022002980F82020D8D0BDE8FD
:1025300010400847014600284FF0010008BF7047CF
:102540002DE9F043D1F800C04FF6F873CBF6FD73D8
:102550004CF6CD426344CCF6CC42A3FB02236FF091
:10256000030202EA93020023C4F2020301F10C0801
:10257000C1E90F320222D1E9019E98E8F00181F809
:102580002120DCF8002043F6F0739A4342EA090266
:1025900042EA0E0222432A4332433A4342EA080205
:1025A000CCF8002000228A6381F8210081F82020E5
:1025B0000020BDE8F04370472DE9F04F82B00E686F
:1025C000002E00F0FD8041F20042C4F2010204231B
:1025D00040F2004E904208BF03234FF6FF7CC4F246
:1025E000010E009300240123C1F2100C4FF0000AE9
:1025F0004FF000094BE000BF41F20002C4F20102BB
:10260000009F904208BF022704F00C030F229A405B
:102610002BEA020207FA03F34FEA9A051A4346F837
:1026200025204E6840F20C45F202DEF8082054BF27
:1026300022EA080242EA0802C4F20105CEF80820A4
:102640002A68B30254BF22EA080242EA08022A605A
:10265000B303DEF8042054BF22EA080242EA08026B
:10266000F303CEF80420DEF800204FF0010354BF3E
:1026700022EA080242EA0802CEF800200E680AF1B7
:10268000010A36FA0AF204F1040400F0998003FA10
:102690000AFB16EA0B08F1D04E68664512DC122ED2
:1026A00056D8DFE806F0350B4D495555555555556B
:1026B0005555555555555545510000BFD1F80C900D
:1026C00046E000BF4FF6FF72C1F2210296420FDCD6
:1026D0000022C1F2110296421AD00022C1F2120267
:1026E000964215D00022C1F22102964210D02FE06E
:1026F0000022C1F2220296420AD00022C1F2310227
:10270000964205D00022C1F23202964220D100BF8B
:102710008A684AB1012A14BFC0F814B0C0F810B0DA
:102720004FF0080914E000BF4FF0040910E000BFAB
:10273000CA6802F104090BE04FF0000908E000BF8D
:10274000CA6802F1080903E0CA6802F10C0900BF77
:1027500002462646B8F5807F24BF0432203E176823
:102760000F25B54027EA050509FA06F63543156039
:10277000CA79D2067FF582AF41F21803C4F2020390
:102780001A68AEF57E7642F001021A601A6802F00D
:1027900001020192019A2AF0030256F802B040F6B3
:1027A0000002C4F20102904208D040F60042C4F296
:1027B000010290427FF420AF012725E7002723E79D
:1027C00002B0BDE8F08F0000002A08BF09040161D3
:1027D0007047000042F25070C2F20000006870477B
:1027E00040F2000042F25071C2F20000C2F2000159
:1027F00000780A68104408607047000080B542F213
:102800000000C4F20200016841F0100101600320E1
:1028100000F0C2F80F2000F005F800F057F8002093
:1028200080BD0000B0B586B041F21801C4F20201CB
:102830000A68054642F400620A60096801A801F4CA
:10284000006101910199694600F016FA00F04AFA18
:102850004DF68361C4F21B31A0FB01014FF0FF3044
:1028600000EB914141F2980042F60042C2F20000B2
:10287000C4F2010240F2E7330024C0E90021C0E9BC
:1028800002430461846100F083FE08B106B0B0BD6C
:1028900041F29800C2F2000000F00EFF0028F5D1CE
:1028A000192000F03BF80F2D0CD8192029460022E2
:1028B00000F046F840F204010020C2F200010D6071
:1028C00006B0B0BD012006B0B0BD000080B582B03A
:1028D00041F21800C4F202000168002241F0010137
:1028E0000160016801F0010101910199416841F025
:1028F0008051416040680F2100F0805000900098A6
:102900006FF0010000F01CF80420C4F2010001681F
:10291000022262F31A61016002B080BD002848BF44
:10292000704700F01F01012202FA01F11C2202EAA5
:10293000D0004EF20012CEF200028150704700002B
:1029400010B54EF60C5CCEF2000CDCF80030C3F390
:10295000022E8EF00704042C28BF0424BEF10303CA
:102960004FF0FF3E0EFA04F438BF0023A143994014
:102970000EFA03F39A43114300F00F0200F1604393
:102980000901043A03F564436244002848BF02F198
:102990000C03197010BD00004EF60C51CEF2000170
:1029A0000A684FF6FF031A4060F30A2242F0806083
:1029B00040F0FD70086070472DE9F04182B0044698
:1029C000007841F21C06C007C4F202064AD0306803
:1029D0005FEAC00808D4306840F08050306030684A
:1029E00000F080500190019847F20007C4F2000700
:1029F0003868C00512D4386840F480703860FFF73A
:102A0000E9FE05463868C00508D4FFF7E3FE401B21
:102A10006428F7D9032002B0BDE8F081706810F493
:102A2000407012D0616801F4407188420DD0706826
:102A300040F24042C4F24222012320F4407113606C
:102A40000023C0071360716026D17068616820F4AC
:102A500040700843B8F1000F706003D4306820F074
:102A6000805030602068810707D556F8181CA2688E
:102A700021F44041114346F8181CC00607D556F80A
:102A8000180CE16820F48000084346F8180C002078
:102A900002B0BDE8F08100BFFFF79CFE054641F2A1
:102AA000883700BF70688007CFD4FFF793FE401BC4
:102AB000B8424FF00300F5D9EAE70000002804BF50
:102AC000012070472DE9F04381B042F20008C4F2C2
:102AD00002080446D8F800000D4600F007008142C5
:102AE0000CD9D8F8000020F007002843C8F80000EF
:102AF000D8F8000000F00700A8426CD1206841F22D
:102B000004098107C4F2020917D5410705D5D9F890
:102B1000001041F4E061C9F80010010705D5D9F8AB
:102B2000001041F46051C9F80010D9F80010A268F3
:102B300021F0F0011143C9F80010C00742D1D8F8C4
:102B4000000000F0070085420CD2D8F8000020F009
:102B500007002843C8F80000D8F8000000F007007C
:102B6000A84238D12068410707D5D9F80010E2689B
:102B700021F4E0611143C9F80010000708D5D9F825
:102B80000000216920F4605040EAC100C9F800004B
:102B9000D9F8002002F00C00082841F20020C0F211
:102BA0007A004DD14AF2B433C2F38341C0F6000338
:102BB000595CD20338D440F60010C0F23D004843BF
:102BC0003EE000BF606859F8041C022808D00128C4
:102BD00026D1890306D4012001B0BDE8F08300BFEF
:102BE0008901F8D5D9F8001021F003010843C9F88C
:102BF0000000FFF7EFFD064641F28837D9F80000E4
:102C0000616800F00C00B0EB810F98D0FFF7E2FD97
:102C1000801BB842F2D9032001B0BDE8F08300BFA9
:102C20008907D8D5DEE700BFD9F800204AF28C33F7
:102C3000C2F34042C0F600039A5C4843B0FBF2F096
:102C4000D9F800104AF25032C1F30311C0F6000265
:102C5000515C40F2100220FA01F140F20400C2F28D
:102C600000000068C2F200021160FFF7DBFD0020E7
:102C700001B0BDE8F08300000F22026041F20402BF
:102C8000C4F20202136803F003034360136803F005
:102C9000F0038360136803F4E063C36012684FF4C9
:102CA000E06303EAD202026142F20000C4F20200D1
:102CB000006800F0070008607047000040F2100054
:102CC00041F20401C2F20000C4F202010068096886
:102CD0004AF26032C1F30221C0F60002515CC840E2
:102CE0007047000040F2100041F20401C2F20000FF
:102CF000C4F20201006809684AF26032C1F3C221DD
:102D0000C0F60002515CC84070470000002804BFB4
:102D1000012070472DE9F04182B00446007841F26D
:102D20000006C007C4F202060CD0706800F00C0068
:102D3000042840F081803068800303D56068002853
:102D400000F04681207880071BD5706810F00C0FCA
:102D500009D0706800F00C00082840F08780706887
:102D6000C00300F183803068800703D52069012803
:102D700040F02E813068616920F0F80040EAC1001F
:102D800030602078000713D4207840072CD4E56900
:102D9000002D00F01881706800F00C00082840F049
:102DA000A780012D40F00481012002B0BDE8F08130
:102DB000A069002800F084800020C4F24220012194
:102DC000C0F88014FFF706FD054600BF706A800753
:102DD00000F1B280FFF7FEFC401B0228F6D9032069
:102DE00002B0BDE8F08100BFF0695FEAC00808D416
:102DF000F06940F08050F061F06900F08050009080
:102E0000009847F20007C4F200073868C00549D4AB
:102E1000386840F480703860FFF7DCFC054600BF7E
:102E20003868C0053ED4FFF7D5FC401B6428F7D9AD
:102E3000032002B0BDE8F081706800F00C000828A3
:102E400003D17068C0033FF576AF61683068002930
:102E500000F00C81B1F5A02F00F00081B1F5803FAA
:102E600040F01A8140F480301CE100BF2069002846
:102E700040F20000C4F2422000F08880012101608D
:102E8000FFF7A8FC054600BF306880073FF572AF2A
:102E9000FFF7A0FC401B0228F6D9032002B0BDE8D2
:102EA000F08100BFE168306A002900F09D800529AB
:102EB00000F09280012940F0AF8040F00100B1E0C5
:102EC0000020C4F242200021C0F88014FFF782FCE9
:102ED000054600BF706A80077FF556AFFFF77AFCA2
:102EE000401B0228F6D9032002B0BDE8F08100BFE4
:102EF0000027C4F2422700203866FFF76BFC022D42
:102F000005460DD13068800140F1DE80FFF762FC9C
:102F1000401B02284FF00300F4D902B0BDE8F08155
:102F2000306880014FD5FFF755FC401B02284FF059
:102F30000300F5D9F1E700BF40F21000C2F2000033
:102F4000006844F6D351C1F26201A0FB0101480AB6
:102F5000019000BF00BF0198411E002801913FF47D
:102F600013AF00BF0198411E002801913FF40CAF40
:102F700000BF0198411E002801913FF405AF00BF3A
:102F80000198411E00280191E4D1FDE60021016075
:102F9000FFF720FC054600BF306880077FF5F1AEE3
:102FA000FFF718FC401B02284FF00300F4D9B4E7E8
:102FB0007068216A00F480328A4209D1616A00F4A3
:102FC0007010884204D1002002B0BDE8F08100BF3B
:102FD000012002B0BDE8F08140F004003062306AA8
:102FE00040F001001EE000BF20F001003062306AB6
:102FF00020F004003062FFF7EDFB054641F2883710
:10300000306A800720D5FFF7E5FB401BB8424FF040
:103010000300F5D981E700BF20F001003062306A7B
:1030200020F004003062FFF7D5FB054641F28837F7
:10303000306A800708D4FFF7CDFB401BB842F7D9B0
:10304000032002B0BDE8F081B8F1000F3FF59FAE5C
:10305000F06920F08050F06199E600BF40F48020D4
:103060003060306840F480301CE000BF20F48030D5
:103070003060306820F480203060FFF7ABFB0546FD
:10308000306880037FF55EAEFFF7A4FB401B642829
:103090004FF00300F4D940E720F48030306030680E
:1030A00020F480203060FFF795FB054630688003F0
:1030B0003FF548AEFFF78EFB401B6428F6D903208E
:1030C00002B0BDE8F08100BF206AB0F5803F05D1B5
:1030D0007168A26821F40031114371607168626AFD
:1030E00021F4741111430843706001203866FFF722
:1030F00071FB0446306880013FF565AFFFF76AFB5E
:10310000001B02284FF00300F4D906E770B528B180
:10311000416A29B100210161142106E0012070BD3E
:103120004168B1F5827F02D01C2100224250002666
:10313000866290F8511029B980F85060054600F079
:1031400039F82846022180F8511090E82E0002F448
:1031500082720C6803F4044324F040040C601A44A7
:1031600005F4006305691A4405F0020345691A4431
:1031700005F001038569C4691A4405F400731A4413
:1031800004F03803046A1A4404F08003846A1A4382
:1031900004F400531A430A60042202EA15424A600A
:1031A000CA6922F40062CA610121466580F85110A3
:1031B000304670BD70B586B040F60044C4F20104DC
:1031C0000068A4F55441002688420596CDE90366BF
:1031D000029601D006B070BD41F21800C4F20200A0
:1031E000416802AD41F480414160416801F4804191
:1031F00001910199016841F00801016000682946C8
:1032000000F00800019001984FF420400290022045
:103210000390032005902046FFF7CEF94FF480403D
:10322000CDE90206204629460496FFF7C5F906B007
:1032300070BD00002DE9F04383B01E4615460F46D1
:103240000446FFF7C7FA94F851108146012909D1C5
:10325000002F4FF0010018BF002D0FD103B0BDE8C3
:10326000F08300BF6068B0F5827F0DD104294FF074
:103270000200F3D1A1680029EAD0EFE7002EEDD0DB
:1032800094F85000012803D1022003B0BDE8F08378
:10329000012084F8500094F85100002104281CBF3C
:1032A000052084F851006165A563E687A68727633A
:1032B000E6862068A686216461640168490603D415
:1032C000016841F0400101606168731EE268B1FA73
:1032D00081F1B3FA83F3DDF8288049095B09B2F57F
:1032E000006F41EA030165D131B137F8021BC160BB
:1032F0002763E08E0138E086012518F1010032D104
:1033000002E000BFFFF766FAE08E18B9E08F0028F0
:1033100000F0B8802068816889070CD5E18E51B132
:10332000012D08D1216B002531F8022BC2602163E9
:10333000E18E0139E1868168C907E3D0E18F002978
:10334000E0D0C068A16B012521F8020BA163E08FDA
:103350000138E087D6E700BFFFF73CFAA0EB090091
:10336000404580F0AF80E08E18B9E08F002800F073
:1033700089802068816889070CD5E18E51B1012DC3
:1033800008D1216B002531F8022BC2602163E18E48
:103390000139E1868168C907DED0E18F0029DBD0E1
:1033A000C068A16B012521F8020BA163E08F0138F1
:1033B000E087D1E739B139780173206B01302063A0
:1033C000E08E0138E086012518F1010032D101E0DC
:1033D000FFF700FAE08E10B9E08F002852D0206885
:1033E000816889070ED5E18E61B1012D0AD1216B6B
:1033F000002509780173216B206801312163E18E7A
:103400000139E1868168C907E2D0E18F0029DFD068
:10341000C068A16B01250870A06B0130A063E08F2C
:103420000138E087D4E700BFFFF7D4F9A0EB09002B
:10343000404547D2E08E08B9E08F18B32068816814
:1034400089070ED5E18E61B1012D0AD1216B0025CE
:1034500009780173216B206801312163E18E013904
:10346000E1868168C907DFD0E18F0029DCD0C06820
:10347000A16B01250870A06B0130A063E08F0138BB
:10348000E087D1E72046022101224346CDF8009093
:1034900002F090FC40B92046802100224346CDF83E
:1034A000009002F087FCB8B1606D40F020006065CC
:1034B00020206065002084F85000012003B0BDE8A2
:1034C000F08300BF012084F85100002084F85000F0
:1034D000032003B0BDE8F083A06838B90020029053
:1034E0002068C1680291806802900298012084F8E7
:1034F0005100002084F85000606D002818BF0120A2
:1035000003B0BDE8F0830000704700007047000082
:1035100090F83C20012A4FF0020236D010B580F816
:103520003D200268D2F804E0D2F808C00C682EF002
:103530007003234340F2FF74C4F20004A2425360BC
:103540000ADCB2F1804F13D040F20043C4F2000312
:103550009A420DD011E000BF42F60043C4F20103CD
:103560009A4205D040F60003C4F200039A4204D107
:1035700049682CF08003194391600121002280F8F2
:103580003D1080F83C20BDE8104010467047000018
:10359000002804BF0120704710B590F83D1031B9E4
:1035A000002180F83C10044600F070F8204602210B
:1035B00080F83D10016840F2FF740B68C4F200040B
:1035C00042F6004CA142C4F2010C15DCB1F1804F6F
:1035D0001AD040F20042C4F20002914214D0A1423B
:1035E00018DCB1F1804F1DD040F20042C4F200025D
:1035F000914217D01AE000BF614505D040F60002A5
:10360000C4F200029142EAD1826823F070031343AE
:10361000A142E6DD614505D040F60002C4F2000299
:10362000914203D1026923F440731343846923F068
:103630008002D0F804E0C368224361450A60CB628F
:10364000C1F828E002D14269CCF8302001224A6159
:103650000B69DB0703D00B6923F001030B6180F8D2
:10366000462080F83E2080F83F2080F8402080F8F7
:10367000412080F8422080F8432080F8442080F8E0
:10368000452080F83D20002010BD00000068B0F10A
:10369000804F18BF704781B041F21C00C4F2020095
:1036A000016841F001010160006800F00100009034
:1036B000009801B07047000090F83D1001291CBF30
:1036C00001207047022180F83D10006840F2FF722F
:1036D000C168C4F20002904241F00101C16009DCFE
:1036E000B0F1804F12D040F20041C4F20001884294
:1036F0000CD012E042F60041C4F20101884205D02C
:1037000040F60001C4F20001884206D1816801F050
:103710000701062904BF00207047016841F001013C
:10372000016000207047000090F83C20012A4FF013
:1037300002026CD080B580F83D20D0F800C04FF672
:103740007772DCF8083023EA0202CCF808200B6814
:103750004F2B29DC1F2B45DD202B46D0302B44D0AE
:10376000402B40F0AF80D1F804E0C968DCF820308D
:10377000DCF8202022F00102CCF82020DCF8182010
:1037800022F0F00242EA011123F00A0242EA0E029C
:10379000CCF81810CCF82020DCF8081041F04701D4
:1037A00021F0300128E000BF6F2B33DDB3F5005F5F
:1037B00074D0B3F5805F21D0702B40F08380D1E9C5
:1037C00001E3C968DCF8082043EA0E0322F47F42D3
:1037D00043EA01211143CCF80810DCF8081041F04D
:1037E000770109E00BB1102B6CD1DCF8081021F047
:1037F0007001194341F00701CCF8081000220121A3
:1038000080F83D10002180F83C10BDE88040104653
:10381000704700BF502B21D0602B53D1D1F804E06A
:10382000C968DCF82030DCF8202022F01002CCF847
:103830002020DCF8182022F4704242EA013123F003
:10384000A00242EA0E12CCF81810CCF82020DCF8C6
:10385000081041F0670121F01001CDE7D1F804E034
:10386000C968DCF82030DCF8202022F00102CCF816
:103870002020DCF8182022F0F00242EA011123F0A7
:103880000A0242EA0E02CCF81810CCF82020DCF82C
:10389000081041F0570121F02001ADE7D1E901E323
:1038A000C968DCF8082043EA0E0322F47F4243EAA9
:1038B00001211143CCF80810DCF8081041F48041D4
:1038C0009AE700BF01229AE77047000070B50446EE
:1038D0000068C5680669B10716D515F0020113D056
:1038E0006FF002010161012121778069800703D017
:1038F0002046FFF7E9FF05E0204600F08FF820465C
:1039000000F010FA00202077700719D515F0040098
:1039100016D020686FF004010161022121778069CF
:1039200010F4407F04D02046FFF7CEFF06E000BF32
:10393000204600F073F8204600F0F4F900202077CC
:10394000300717D515F0080014D020686FF0080173
:10395000016104212177C069800703D02046FFF769
:10396000B3FF05E0204600F059F8204600F0DAF9F0
:1039700000202077F00619D515F0100016D0206829
:103980006FF01001016108212177C06910F4407FB8
:1039900004D02046FFF798FF06E000BF204600F065
:1039A0003DF8204600F0BEF900202077F00718BF50
:1039B00015F0010002D1300609D412E020686FF042
:1039C00001010161204600F0AFF9300609D515F07C
:1039D000800006D020686FF0800101612046FFF76B
:1039E00093FD700609D515F0400006D020686FF0F1
:1039F00040010161204600F0A1F9B00658BF70BD3A
:103A000015F0200008D021686FF0200220460A61DE
:103A1000BDE87040FFF77ABD70BD00007047000040
:103A200090F83C30012B04BF022070474FEAB202ED
:103A3000032A00F2F1802DE9F043DFE802F003A54C
:103A40003B7500BF036842F600461D6A1A6AC4F25D
:103A5000010622F001021A621A465C6852F818CF79
:103A6000B3428E68D1F800E025F0020545EA06056C
:103A70000CD1CE68D1E9057824F4407425F00C050A
:103A800026F004063C43354344EA08042CF073074F
:103A900047EA0E075C609F614F6809695F631D62BA
:103AA0009F6947F008079F619F6927F004079F619E
:103AB000A6E000BF036842F600461D6A1A6AC4F217
:103AC000010622F480721A621A46D3F804C052F832
:103AD0001CEFB3428E680C6825F4007545EA062594
:103AE0000FD1CE68D1E90598360240F2FF4725F4A0
:103AF0004065BE4335432CF4405748EA090647EA7F
:103B0000061C2EF073072743C3F804C0DF614F681B
:103B10000969DF631D62DF6947F00807DF61DF695C
:103B200027F00407DF616BE0036842F60047D3F833
:103B300020C01A6AC4F2010722F480521A621A469F
:103B40005C6852F81C5FD1F800E08E68BB4204D17B
:103B50004F6924F4804444EA87142CF4005747EA60
:103B6000063725F4E64646EA0E265C60DE614E68BE
:103B700009691E641F62DF6947F40067DF61DF695E
:103B800027F48067DF613AE0036842F600461D6A69
:103B90001A6AC4F2010622F010021A621A46D3F819
:103BA00004C052F8184FB3428E68D1F800E025F0F7
:103BB000200545EA06150FD1CE68D1E905986FF0CA
:103BC000400725F0C00507EA061635432CF4406788
:103BD00048EA090647EA860C24F4E64444EA0E273C
:103BE000C3F804C09F614F6809699F631D629F69A4
:103BF00047F400679F619F6927F480679F6109020E
:103C00001368194311600021BDE8F043002280F8D9
:103C10003C200846704700BF0121002280F83C206C
:103C200008467047002804BF0120704710B590F87F
:103C30003D1031B9002180F83C10044600F070F8C6
:103C40002046022180F83D10016840F2FF740B68A5
:103C5000C4F2000442F6004CA142C4F2010C15DC8F
:103C6000B1F1804F1AD040F20042C4F200029142FA
:103C700014D0A14218DCB1F1804F1DD040F20042B7
:103C8000C4F20002914217D01AE000BF614505D08E
:103C900040F60002C4F200029142EAD1826823F0A9
:103CA00070031343A142E6DD614505D040F60002F2
:103CB000C4F20002914203D1026923F4407313431A
:103CC000846923F08002D0F804E0C3682243614590
:103CD0000A60CB62C1F828E002D14269CCF83020FA
:103CE00001224A610B69DB0703D00B6923F0010352
:103CF0000B6180F8462080F83E2080F83F2080F855
:103D0000402080F8412080F8422080F8432080F84D
:103D1000442080F8452080F83D20002010BD0000A0
:103D20007047000070470000006842F60041C4F28E
:103D30000101884218BF7047FEF752BD704700006E
:103D40007047000070470000B0B582B001680A6893
:103D5000CC684B6902F02F05202D04F0200505D119
:103D600025B102B0BDE8B04002F0F0B85FEA027CD5
:103D70001EBF03F0010E04F4907313EB0E0341D148
:103D8000036BD50618D5012B16D114F0100313D0F0
:103D9000002201920A6801924A680192019A4969D7
:103DA00049064BD4818DC28DC38D002B18BF914223
:103DB00040F0F48102B0B0BD13062DD514F080039D
:103DC0002AD090F84120212AF4D18268B2F5805F90
:103DD00003D10269002A00F06782026A531C036261
:103DE00012784A60C28C013A1304C284E2D1C868D6
:103DF00020F08000C860C86840F04000C86002B091
:103E0000B0BD00BFD30718BF14F4807340F0D0805A
:103E1000530700F1D380D8E05206CBD514F040020E
:103E2000C8D0CA6822F04002CA60202180F8411040
:103E300002B0BDE8B04000F07DBC00BFC16B0A68B5
:103E4000526893B2002BB5D0858DAB42B2D2C285F9
:103E50008969202900F0A180016851E8031F0268E8
:103E600021F4807142E80313DBB1016851E8031FBC
:103E7000026821F4807142E8031393B1016851E8AC
:103E8000031F026821F4807142E803134BB10168FB
:103E900051E8031F026821F4807142E80313002BEC
:103EA000DAD1016851E8051F026821F0010142E8FA
:103EB0000513C3B3016851E8051F026821F0010131
:103EC00042E805137BB3016851E8051F026821F041
:103ED000010142E8051333B3016851E8051F026888
:103EE00021F0010142E80513002BDAD11BE000BFED
:103EF000016851E8051F026821F0400142E80513FE
:103F0000DBB1016851E8051F026821F0400142E879
:103F1000051393B1016851E8051F026821F04001C3
:103F200042E805134BB1016851E8051F026821F012
:103F3000400142E80513002BDAD1202180F842101D
:103F400000210163016851E8031F026821F010019C
:103F500042E80313DBB1016851E8031F026821F056
:103F6000100142E8031393B1016851E8031F02688E
:103F700021F0100142E803134BB1016851E8031F1F
:103F8000026821F0100142E80313002BDAD1C16B63
:103F900004460846FEF77EF9204602214163818DE2
:103FA000C28D891A89B202B0BDE8B040FFF7C8BE21
:103FB000436C43F001034364530706D5BEF1000F81
:103FC00003D0436C43F002034364930706D5BEF16C
:103FD000000F03D0436C43F004034364BCF1000FB3
:103FE00006D55EEA050303D0436C43F0080343643F
:103FF000436C002B3FF4DEAE920605D525B1044696
:1040000001F0A4FF216820464969426C01F040019B
:1040100002F00802891800F0B98000BF016851E879
:10402000031F026821F4907142E80313BBB30168D7
:1040300051E8031F026821F4907142E8031373B33F
:10404000016851E8031F026821F4907142E80313EC
:104050002BB3016851E8031F026821F4907142E814
:104060000313002BDAD11AE0016851E8051F02683A
:1040700021F0010142E80513DBB1016851E8051F99
:10408000026821F0010142E8051393B1016851E88B
:10409000051F026821F0010142E805134BB10168D8
:1040A00051E8051F026821F0010142E80513002BC9
:1040B000DAD1016B012924D1016851E8031F02689C
:1040C00021F0100142E80313DBB1016851E8031F3E
:1040D000026821F0100142E8031393B1016851E82E
:1040E000031F026821F0100142E803134BB101687D
:1040F00051E8031F026821F0100142E80313002B6E
:10410000DAD1202180F84210002101630168496959
:10411000490640F1C380016851E8051F026821F09B
:10412000400142E80513DBB1016851E8051F026850
:1041300021F0400142E8051393B1016851E8051FE1
:10414000026821F0400142E805134BB1016851E8D3
:10415000051F026821F0400142E80513002BDAD167
:10416000C16B002900F09A8045F64172C0F600024A
:10417000044608464A63FEF7B1F800283FF41AAE39
:10418000E06B416B02B0BDE8B04008470446FFF762
:10419000D9FD0020606402B0B0BD00BF891A00BF25
:1041A000026852E8032F036822F4907243E8032563
:1041B000BDB3026852E8032F036822F4907243E80B
:1041C000032575B3026852E8032F036822F4907246
:1041D00043E803252DB3026852E8032F036822F455
:1041E000907243E80325002DDAD11AE0026852E804
:1041F000052F036822F0010243E80525DDB10268BE
:1042000052E8052F036822F0010243E8052595B125
:10421000026852E8052F036822F0010243E80525F1
:104220004DB1026852E8052F036822F0010243E80D
:104230000525002DDAD1202280F8422000220263D9
:10424000026852E8032F036822F0100243E80325B6
:10425000DDB1026852E8032F036822F0100243E840
:10426000032595B1026852E8032F036822F010027B
:1042700043E803254DB1026852E8032F036822F09A
:10428000100243E80325002DDAD1022289B24263ED
:1042900002B0BDE8B040FFF753BD00BF02B0BDE8BB
:1042A000B040FFF74FBD00BF026A32F8023B6FF328
:1042B0005F234B60026295E5002804BF0120704730
:1042C00010B5044690F8410028B9002084F8400059
:1042D000204600F063F8242084F841002068D4E9E7
:1042E0000212C36823F40053C360036923F44053EC
:1042F0001A430261D4E904231143C268194341F20D
:104300000C639A431143C1604169A26921F4407171
:10431000114343F60002C4F201029042416103D00E
:10432000FEF7CCFC02E000BFFEF7DCFCD4E9002382
:10433000192148439900B0FBF1F048F21F5CC5F227
:10434000EB1CA0FB0C314FF69C734909C0F6FF73C0
:1043500001FB0300322303EB0010A0FB0C03F02051
:1043600000EA531000EB0110C3F3431108449060BE
:104370001069202120F490401061506920F02A003B
:104380005061D06840F40050D0600020606484F830
:10439000411084F84210606310BD00002DE9F04127
:1043A00086B00446006844F20041C4F200010027D0
:1043B00088420597CDE90377029700F09B8044F689
:1043C0000001C4F2000188425AD043F60001C4F251
:1043D0000101884240F08A8041F21807C4F20207C6
:1043E000386840F6000540F4804038603868C4F210
:1043F000010500F480400190019838680DF108082B
:1044000040F0040038603868414600F00400019034
:1044100001984FF400700290022003900320059051
:104420002846FEF7C9F84FF480600290002628461F
:104430004146CDE90366FEF7BFF840F6B875A7F52B
:104440007C60C2F200058021C5E900062846C5E966
:104450000261C5E90466C5E90666FEF76BF8002847
:1044600018BFFDF7CFFA252005210022E5636C6215
:10447000FEF766FA2520FEF751FA06B0BDE8F08196
:1044800041F21C00C4F20200016802AD41F4802137
:104490000160006800F480200190019841F218004A
:1044A000C4F20200016841F0080101600068294679
:1044B00000F00800019001984FF480600290022003
:1044C00003900320059040F60000C4F2010000F5BF
:1044D00080642046FEF770F84FF4006002900020E0
:1044E000CDE9030020462946FEF766F806B0BDE890
:1044F000F08100BF41F21C00C4F20200016841F2E9
:10450000180541F4003101600068C4F2020500F4AE
:10451000003001900198286840F6000840F004003F
:1045200028602868C4F2010800F004000190019896
:104530000420029002200390032002AE0590404622
:104540003146FEF739F80820CDE9020740463146EA
:104550000497FEF731F8A5F6AC7040F6FC75C2F290
:1045600000058021C5E900072846C5E90271C5E9B3
:104570000477C5E90677FDF7DDFF002818BFFDF7D2
:1045800041FA262005210022E5636C62FEF7D8F986
:104590002620FEF7C3F906B0BDE8F08170470000A1
:1045A0002DE9F04381B0044690F84100202809D15C
:1045B00000294FF0010018BF002A07D101B0BDE863
:1045C000F08300BF022001B0BDE8F08300206064EA
:1045D00021201D460E4684F841001746FEF7FAF8E2
:1045E000A784E784A1688146B1F5805F02D1206984
:1045F00000285DD037460020E28C2168002A5DD07B
:104600006A1C24D0002D4AD0804600BF08680006EE
:1046100008D4FEF7DFF8A0EB0900A8427AD8216899
:10462000C868F3E717B117F8010B04E038F8020B7C
:1046300000276FF35F204860E08C0138E084E08C55
:104640000028E3D13AE000BF0A68120609D40A68DC
:10465000120606D40A6812065CBF0A685FEA0262A4
:10466000F2D51FB117F8012B05E000BF30F8022B7F
:1046700000276FF35F224A60E28C013AE284E28C09
:10468000002AE4D11AE000BF30F8022B00276FF3B4
:104690005F224A60E28C013AE284E28C72B10A68DD
:1046A000120635D5002FEFD017F8012BF1E700BF28
:1046B00000273046E28C2168002AA1D10868400614
:1046C0001ED42DB3681C14D1086840062AD408688B
:1046D000400627D40868400624D4086840064FF0F6
:1046E0000000F1D50DE000BF2068C16800684006F9
:1046F00018D4FEF76FF8A0EB0900A842F4D909E03E
:104700000020202184F8411001B0BDE8F08300BFF3
:10471000FEF760F80320202184F8411001B0BDE8C5
:10472000F08300BF0020202184F8411001B0BDE8D3
:10473000F083000070470000FEE7000088B0EFF350
:10474000108072B64820FDF729F90020C4F27A40A3
:1047500062B600F0FBFE00BFFDF726F80028FBD193
:1047600041F228104AF21641C2F20000C0F60001E0
:104770000A226423FFF714FF40F26019C2F2000915
:10478000012089F8000009F13000079009F13C0090
:1047900009F12008069062E041F2040BCEF2000B12
:1047A00009F12406DBF800A062CED9F8300005F04C
:1047B00055FC0446D9F834002946C9F8304005F0C4
:1047C0004DFC0546D9F838003146C9F8345005F09B
:1047D00045FCC9F838000246DBF80060D9E90F3023
:1047E000D9F844100027CDE9000120462946CDE93B
:1047F0000277049700F03CFFDBF80040A01B05F0B7
:1048000023FA0025C4F29025294605F0F3F8C9F8EB
:10481000140000F0B3FEDBF80000001B05F014FAF2
:10482000294605F0E7F8C9F8180001F0C9FEC9F8F3
:104830000C0001F0D1FEC9F8080001F0D9FEC9F85A
:104840001000DBF80000A0EB0A0005F0FDF9294696
:1048500005F0D0F8C9F81C00012001F035FFDDE9B2
:1048600006104246FCF7ACFF99F8010040BB09F185
:104870003C0207CA012389F8013000270023009772
:10488000019700F0CDFA09F13C0531CD04F0E8FFC5
:10489000824620460F4604F0E3FF044628460E46B3
:1048A00004F0DEFF029041F228100D46C2F2000033
:1048B00033A152463B46CDE90046039501F0D8FBB3
:1048C00099F8000002283FF467AF0128C4D109F12C
:1048D0002405D9F8300032CDD9F8046004F0ECFF9B
:1048E0008246D9F834002146C9F824A004F0E4FF38
:1048F0000446D9F838002946C9F8284004F0DCFFFE
:104900008346C9F82C00701CB0F57A7FC9F8040002
:10491000A2D30026C4F27A465046314605F06AF822
:104920000546C9F824002046314605F063F80446E0
:10493000C9F828005846314605F05CF80646C9F823
:104940002C00022089F80000284604F089FF8246E6
:1049500020460F4604F084FF044630460D4604F01E
:104960007FFF029041F228100E46C2F200000FA114
:1049700052463B46CDE90045039601F079FB6BE7D3
:104980004D61686F6E7920496E697420776974682B
:1049900020616363656C3A20252E33662C252E3307
:1049A000662C252E33660D0A000000004779726FD1
:1049B0002063616C6962726174696F6E20646F6EEE
:1049C0006521204F66667365743A20252E33662C68
:1049D000252E33662C252E33660D0A00B0B584B023
:1049E00040F6607042F20041C2F20000C4F20101E0
:1049F00000244FF46022012504730475C261C0E9EC
:104A0000001484600561FDF7A9F8002818BFFCF7C1
:104A1000F9FF40F66070C2F2000001A9CDE901453E
:104A20000394FCF7FBFF002818BFFCF7EBFF04B072
:104A3000B0BD000080B540F6907046F20041C2F271
:104A40000000C4F200010422002380E80E0000F1FF
:104A50000C014FF4A02C4FF4801E81E808508361B4
:104A60008383FDF725FB002808BF80BDBDE880409B
:104A7000FCF7C8BF80B582B041F21400C4F2020056
:104A80000168002241F0010101600068052100F089
:104A90000100019001980F20FDF752FF0F20FDF754
:104AA0003DFF102005210022FDF74AFF102002B033
:104AB000BDE88040FDF732BF10B545F605704AF2FB
:104AC000C432C0F60000C0F60002002101F03EFE34
:104AD00040F27804C2F20004206044F23D704AF2D1
:104AE0009032C0F60000C0F60002002101F02EFE58
:104AF000606041F611204AF26832C0F60000C0F64C
:104B00000002002101F022FEA06010BD2DE9F04F4F
:104B100085B0002441F21800CDE90344CDE90144F9
:104B2000C4F20200016840F6000841F01001016083
:104B30000168C4F2010801F01001009100990168B8
:104B400008F5006741F0200101600168002201F0D2
:104B500020010091009901684FF4604641F0040182
:104B60000160016801F0040100910099016841F0C1
:104B70000801016000684FF4604100F008000090F7
:104B800000983846FDF720FE08F58065284641F27A
:104B90000101002241F20109FDF716FE40464FF4E3
:104BA00080710022FDF710FE019601AE4FF0010A60
:104BB0004FF0020B38463146CDE902A4CDF810B0D3
:104BC000FDF7FAFC0320029040463146CDF804A0E0
:104BD000FDF7F2FCF020CDE9010440463146039494
:104BE000FDF7EAFC28463146CDE9019ACDE9034BB1
:104BF000FDF7E2FC062001900020C1F21100CDE992
:104C0000020428463146FDF7D7FC4FF48070CDE909
:104C1000010A40463146CDE9034BFDF7CDFC05B016
:104C2000BDE8F08F80B541F2400043F60001C2F2CA
:104C30000000C4F200014FF4827200234FF4007CA4
:104C400080E80E000A21C0E90333C0E9053CC361D6
:104C5000C0E90833C0E90A31FEF758FA002808BF56
:104C600080BDBDE88040FCF7CDBE000010B594B01B
:104C700041F2E0000021C2F200004FF080424FF606
:104C8000FF730E91CDE90C110991CDE90711CDE922
:104C90000511CDE90311CDE90111C0E90021C0E9F9
:104CA000021301618161FEF773FC002818BFFCF755
:104CB000A9FE4FF480500B9041F2E000C2F20000D8
:104CC0000BA9FEF731FD002818BFFCF79BFE41F24F
:104CD000E000C2F20000FEF7A5FF002818BFFCF7B5
:104CE00091FE41F2E0000024C2F2000008A9CDE9E3
:104CF0000844FEF70DFC002818BFFCF783FE602077
:104D0000CDE901040394059441F2E004C2F20004E9
:104D100001A920460422FEF783FE002818BFFCF7F5
:104D200071FE21680020B1F1804FCDE91200119091
:104D3000109001D014B010BD41F21800C4F202006E
:104D4000016841F004010160006810A900F004004E
:104D50000F900F980220CDE91000139040F600004C
:104D6000C4F20100FDF728FC14B010BD80B541F27B
:104D7000281043F60001C2F20000C4F20101002332
:104D80004FF00C0C4FF4E13280E80E00C0E9033321
:104D9000C0E905C3C361FFF78FFA002808BF80BDD3
:104DA000BDE88040FCF72EBE80B541F2701044F2A1
:104DB0000041C2F20000C4F2000100234FF00C0CCD
:104DC0004FF4E13280E80E00C0E90333C0E905C3C7
:104DD000C361FFF771FA002808BF80BDBDE88040BD
:104DE000FCF710BE80B541F2B81044F60001C2F2E3
:104DF0000000C4F2000100234FF00C0C4FF4E1322C
:104E000080E80E00C0E90333C0E905C3C361FFF7C2
:104E100053FA002808BF80BDBDE88040FCF7F2BD12
:104E20002DE9F04F87B0DDE910AB804608461F46FC
:104E300015460E4604F084FF04464046414604F001
:104E40007FFF214604F038FD04462846294604F039
:104E500077FF214604F030FD4FF07E51059104F0BC
:104E6000B7FC059902460846114604F0C3FD0590BB
:104E7000059C3046214604F063FF814628462146C2
:104E800004F05EFF05463846002104F07DFDD8BBE6
:104E90005046002104F078FDB0BB5846002104F0D4
:104EA00073FD88BB5046514604F04AFF064638461B
:104EB000394604F045FF314604F0FEFC06465846EC
:104EC000594604F03DFF314604F0F6FC4FF07E51A8
:104ED000069104F07DFC069902460846114604F04E
:104EE00089FD0690069E3846314604F029FF0746A4
:104EF0005046314604F024FF04905846314604F0F1
:104F00001FFF039002E000BFCDE903BA84F0004127
:104F1000404604F015FF294604F086F983464846CA
:104F2000294604F081F9054604F08EFB0446284624
:104F300004F0CCFA0290584604F0C8FA804658466D
:104F400004F082FB81463846002101974FF0000AA9
:104F500004F01AFD002840D10498002104F014FD4B
:104F6000D8BB039E0021304604F00EFDA8BBDDF83F
:104F700010A04946504604F0E3FE0146204604F0E6
:104F8000DFFE009404460198029F414604F0D8FEDB
:104F9000214604F091FC04463046494604F0D0FE18
:104FA000394604F0CDFE214604F086FC0099044603
:104FB000304604F0C5FE06465046394604F0C0FEB1
:104FC000314605F04BF880F00040214604F02CF902
:104FD0004FF07C5104F0B4FE824628464FF07C51DD
:104FE00004F0AEFE054604F071FA074658464FF04D
:104FF0007C5104F0A5FE044604F068FA06465046CB
:1050000004F064FA8146284604F01EFB80462046E0
:1050100004F01AFB0546504604F016FB04463846D9
:105020003146BB4604F08CFE0746049040462946B4
:1050300004F086FE2146039004F082FE8246384644
:10504000494604F07DFE514604F036FC8246304667
:10505000414604F075FE06465846294604F070FEA7
:105060002146054604F06CFE07463046494604F0EA
:1050700067FE394604F0F2FF80463046214604F0D0
:105080005FFE06462846494604F05AFE314604F0C3
:1050900013FC06460398494604F052FE0546049860
:1050A000214604F04DFE294604F0D8FF074640464D
:1050B000414604F045FE04465046514604F040FE89
:1050C000214604F0F9FB04463046314604F038FE30
:1050D000214604F0F1FB04463846394604F030FE20
:1050E000214604F0E9FB4FF07C51054604F028FE10
:1050F000044645F6DF10C5F63770A0EB550520468F
:10510000294604F01DFE294604F01AFE01464FF020
:105110007F5004F0A3FF294604F012FE0546204606
:10512000294604F00DFE294604F00AFE01464FF020
:105130007F5004F093FF0146284604F001FE044628
:105140005046214604F0FCFD40F2E815C2F200058D
:10515000A8604046214604F0F3FDE8603046214651
:1051600004F0EEFD28613846214604F0E9FD68614F
:1051700007B0BDE8F08F00002DE9F04F8FB08B46EF
:10518000DDE9184A0B90184600211D46914604F0AF
:10519000FBFB40F2E818C2F20008A8B1204600214B
:1051A00004F0F2FB80B15046002104F0EDFB58B151
:1051B000D8E90401D8E902A6074680F000400B9D1B
:1051C00009910A90F5E000BF20462146CDF808B0CD
:1051D000CDF8109004F0B4FD07462846294604F0A7
:1051E000AFFD394604F068FB07465046514604F0CF
:1051F000A7FD394604F060FB4FF07E510D9104F09D
:10520000E7FA0D9902460846114604F0F3FB0D90AB
:105210000D9F2846394604F093FD069020463946F6
:1052200004F08EFD00905046394604F089FD834617
:10523000D8F8040008F10807B0CF019087F00040CB
:10524000D8F814600A902046394604F079FD81466A
:105250002846314604F074FD494604F0FFFE8246BC
:10526000304639460C9704F06BFD07462046294628
:10527000059504F065FD394604F01EFB8146204685
:105280002146039404F05CFD4FF03F4104F014FB11
:10529000054630463146099604F052FD294604F091
:1052A0000BFB0546584649465F4604F049FD009E03
:1052B00004463046294604F043FD214604F0CEFE64
:1052C000DDF818B008905846294604F039FD044628
:1052D0003846514604F034FD214604F0BFFE0790E5
:1052E00030465146019F04F02BFD0446584649467E
:1052F00004F026FD214604F0B1FE06903846002158
:105300004FF0000904F05CFBB0BB0899384604F08C
:1053100017FDD8F8245008F1180A9AE850042946D5
:1053200004F00EFD214604F0C7FA0799814638467D
:1053300004F006FD294604F003FD314604F0BCFAF2
:1053400006990646384604F0FBFC294604F0F8FCB2
:10535000514604F0B1FA05460B98494604F0ACFA00
:1053600082460298314604F0A7FA0446049829467A
:1053700004F0A2FA074605E0049F029CDDF82CA089
:105380000026002508985146C8E90696C8F820501E
:1053900004F092FA05460798214604F08DFA8346F8
:1053A0000698394604F088FADDF80CA0059E0C9F9B
:1053B0008146D8F824004FF07C5104F0C1FC04462B
:1053C0002846214604F0BCFC054607905846214675
:1053D00004F0B6FC83464846214604F0B1FC814601
:1053E00038465946B04686F000443E460C9704F0D5
:1053F000A7FC07462046294604F0A2FC394604F0E3
:105400002DFE099D04462846494604F099FC0146B4
:10541000204604F023FE0146504604F04DFA0B905E
:105420004846314604F08CFC079E044650463146FF
:1054300004F086FC214604F03FFA0446284659460B
:1054400004F07EFC0146204604F008FE014640467A
:1054500004F032FA08904046494604F071FC0746D1
:105460005046594604F06CFC394604F0F7FD0746F7
:1054700028463146344604F063FC394604F01CFAF1
:1054800001460C9804F018FA07464046594604F0C5
:1054900057FC06465046494604F052FC314604F09B
:1054A0000BFA06460A98214604F04AFC314604F0FD
:1054B00003FA0146284604F0FFF9DDF8208005468E
:1054C0004046414604F03CFC0B9C064620462146E3
:1054D00004F036FC314604F0EFF90646384639460A
:1054E00004F02EFC314604F0E7F90646284629462A
:1054F00004F026FC314604F0DFF94FF07E510E91A6
:1055000004F066F90E9902460846114604F072FA54
:105510000E900E9E2046314604F012FC40F2E81434
:10552000C2F20004A0604046314604F009FCE0608D
:105530003846314604F004FC20612846314604F028
:10554000FFFB60610FB0BDE8F08F000010B540F2C6
:10555000E8140146C2F2000400204FF07E52C4E974
:105560000102C4E90300C4E90500C4E90700207092
:105570004FF07E5004F03EFA606210BD2DE9F04F0E
:1055800081B040F2E81BC2F2000BDBE90464DBE906
:1055900002A53046214604F0D3FB07465046294673
:1055A00004F0CEFB394604F087F9804628462946A8
:1055B00004F0C6FB01464FF07C5004F04FFD074657
:1055C00086F00040314604F0BBFB3946814604F0CA
:1055D00073F90146404603F027FE42F6E168C4F243
:1055E0006528414604F0ACFBCBF828005046314614
:1055F00004F0A6FB07462846214604F0A1FB01461D
:10560000384604F02BFD014604F056F903F07AFD0C
:10561000414604F095FBCBF82C005046214604F09F
:105620008FFB07462846314604F08AFB394604F0D2
:1056300043F9054648464FF07C5104F03DF90646D3
:105640002046214604F07CFB0146304604F006FD6E
:105650000146284603F0E8FD414604F071FBCBF813
:10566000300001208BF8000001B0BDE8F08F000091
:105670002DE9F04F9DB0DDE928A90C46DDF8A880A2
:10568000DDE9265B1990504600211F46164604F0BE
:105690007BF9A8B14846002104F076F980B1404674
:1056A000002104F071F958B1CDF89CB01998214649
:1056B00032463B4626951DB0BDE8F04FFFF75CBD76
:1056C00038460021189404F05FF9B8B1284600214B
:1056D00004F05AF990B15846002104F055F968B128
:1056E00040F2E810C2F200008168D0E9039A4069F4
:1056F000169117903446DDE9187635E2284629469A
:10570000119604F01DFB06463846394604F018FB96
:10571000314604F0D1F806465846594604F010FBCD
:10572000314604F0C9F84FF07E511A9104F050F858
:105730001A9902460846114604F05CF91A901A9E1E
:105740003846314604F0FCFA0E902846314604F003
:10575000F7FA15905846314604F0F2FA0D90484693
:10576000494604F0EDFA04465046514604F0E8FA82
:10577000214604F0A1F804464046414604F0E0FA10
:10578000214604F099F84FF07E511B9104F020F867
:105790001B9902460846114604F02CF91B901B9CED
:1057A0005046214604F0CCFA14904846214604F0B5
:1057B000C7FA13904046214604F0C2FA40F2E811BD
:1057C000C2F2000101F10807B0CF4E6904902046F3
:1057D000214604F0B5FA12902046294604F0B0FAAA
:1057E00008902046394604F0ABFA814606902046E0
:1057F0003146169404F0A4FA82462846294604F05D
:105800009FFA02902846394604F09AFA80460190A1
:10581000284631460F9504F093FA834605903846A2
:10582000394604F08DFA04460990384631461097FF
:1058300004F086FA039030463146179604F080FA59
:1058400005464FF07C50214604F008FC29462C46C2
:10585000079504F003FC05460A9040465146D046A1
:1058600004F0FCFB0C90DDF84CA00146504604F01F
:1058700067FA149F06463846294604F061FA314615
:1058800004F01AF806464846594604F015F80B90FD
:10589000049D0146284604F053FA314604F00CF802
:1058A000014604F009F881460198414604F004F8E5
:1058B000029906464FF07C5004F0D0FB214602903E
:1058C00004F0CCFB01465046D34604F039FA0446B6
:1058D0003846314604F034FA214603F0EDFF039ECA
:1058E000DDF8208004463046414604F0B7FB01460F
:1058F0002846AA4604F024FA214603F0DDFF0146BB
:1059000003F0DAFF014604F01BFA04464846494614
:1059100004F016FA214603F0CFFF03F059FF01907F
:10592000DDE9050104F09AFB05464046314603F0E7
:10593000C3FF01465846894604F002FA0446384639
:105940002946069504F0FCF9214603F0B5FF074609
:105950000298099904F082FB04465046214604F05F
:10596000EFF9394603F0A8FF014603F0A5FF83468F
:1059700012984FF03F4103F09FFF079903F09CFFFF
:1059800007462846594604F0DBF9019E0A99054668
:10599000304604F0D5F9294603F08EFF0A904846B8
:1059A0005946CDF8209004F0CBF90C9905463046C5
:1059B00004F0C6F9294603F07FFF05460C90204607
:1059C000594604F0BDF90B990446304604F0B8F985
:1059D000214603F071FFDDF8348004464046494615
:1059E00004F0AEF906461598394604F0A9F9314697
:1059F00004F034FB06465046294604F0A1F9DDF8D0
:105A00004CB005465846214604F09AF9294604F060
:105A100025FB314603F050FF1290DDF838903946EF
:105A2000484604F08DF9069E05464046314604F08E
:105A300087F9294604F012FBDDF850800546404600
:105A4000214604F07DF90A9F04465046394604F089
:105A500077F9214604F002FB294603F02DFF824628
:105A60001598314604F06CF908990446484604F04C
:105A700067F9214604F0F2FA04465846394604F024
:105A80005FF90C990546404604F05AF9294604F09E
:105A9000E5FA214603F010FF40F2E811C2F20001DE
:105AA0004F688046384600214FF0000903F088FF18
:105AB000E0BB1299384604F043F940F2E811C2F213
:105AC00000014646D046D1E908A4D1E9065B21464B
:105AD00004F036F9294603F0EFFE81463846414688
